:100000005FC100008EC100008CC100008AC10000E9
:1000100088C1000086C1000084C1000082C10000C8
:1000200080C100000C94FC220C94FC220C94FC2255
:1000300078C1000076C1000074C1000072C10000E8
:1000400070C100006EC100006CC100006AC10000F8
:1000500068C1000066C1000064C100000C949535C1
:1000600060C100000C9476340C944D345AC10000E9
:1000700058C1000056C1000054C1000052C1000028
:1000800050C100004EC100004CC100004AC1000038
:100090000C9424340C94FB3344C100000C94CB2109
:1000A00040C100003EC100003CC100003AC1000058
:1000B00038C1000036C1000034C1000032C1000068
:1000C00030C100002EC100002CC100000C94D233BE
:1000D0000C94A93326C100000C9480330C94573340
:1000E00020C10000D032D332C232C632CC320A3301
:1000F000D732DB32E132E532E932EF32F332F73236
:100100000A33FD320133053308000000BE92244952
:10011000123EABAAAA2ABECDCCCC4C3E0000008039
:10012000BEABAAAAAA3E00000000BF000000803FAC
:100130000000000000084178D3BB4387D1133D196C
:100140000E3CC3BD4282AD2B3E68EC8276BED98F99
:10015000E1A93E4C80EFFFBE01C4FF7F3F000000DD
:1001600000004E414E494E495459494E46CDCCCCE3
:100170003D0AD7233C17B7D13877CC2B329595E67B
:10018000241FB14F0A000020410000C84200401C5B
:100190004620BCBE4CCA1B0E5AAEC59D7400002141
:1001A00000240027002A002D003000330001010048
:1001B00000040107010A0100002200250028002B8D
:1001C000002E003100340002010000050108010B7F
:1001D00001000020002300260029002C002F0032FF
:1001E00000000100000301060109010505050507DE
:1001F0000508080808020202020A0A0808040404A2
:1002000004010101010101010103030303030303CD
:1002100003040707070C0C0C0C0C0C0C0C0202025C
:100220000206060606060606060B0B0B0B0B0B0B4F
:100230000B010210202008081020401020408002EE
:10024000010201080402010102040810204080801C
:1002500040201008040201800402018040201008A0
:100260000402010804020101020408102040800178
:100270000204081020408000000A0B02090C0D0E39
:100280000807030401000000000000000000000057
:10029000000000000000000000000000000000005E
:1002A000000000121110000000000000000000001B
:1002B0000000000000000000000000000000DF352A
:1002C00011241FBECFEFD1E2DEBFCDBF00E00CBFD7
:1002D00025E1A8EDB0E101C01D92AD3DB207E1F707
:1002E00010E1A0E0B2E0E2E2FEE700E00BBF02C0F6
:1002F00007900D92A83DB107D9F711E0C0E6D1E013
:1003000000E006C021970109802FFE010E94F13E06
:10031000CF35D10780E00807A9F70E94A3360C94D7
:100320000F3F6ECE4F925F926F927F928F929F920D
:10033000AF92BF92CF92DF92EF92FF920F931F93F3
:10034000CF93DF93CDB7DEB7C555D1090FB6F8947B
:10035000DEBF0FBECDBF8C01DC018C918F3309F065
:10036000A7C00E94BB286EE373E088EA94E10E9474
:10037000453366E573E088EA94E10E9445336CE812
:1003800073E088EA94E10E94453367EC73E088EA01
:1003900094E10E9445336DED73E088EA94E10E9498
:1003A000453362EF73E088EA94E10E94453360E0F0
:1003B00074E088EA94E10E9445336FE074E088EAD3
:1003C00094E10E9445336BE274E088EA94E10E9474
:1003D000453369E474E088EA94E10E9445336CE6B1
:1003E00074E088EA94E10E9445336AE874E088EAA0
:1003F00094E10E94453368EA74E088EA94E10E943F
:1004000045336CEC74E088EA94E10E94453366EE73
:1004100074E088EA94E10E9445336FEF74E088EA63
:1004200094E10E9445336DE175E088EA94E10E9411
:10043000453367E375E088EA94E10E94453360E55F
:1004400075E088EA94E10E9445336BE675E088EA3E
:1004500094E10E94453366E875E088EA94E10E94E1
:10046000453368EA75E088EA94E10E94453368EC18
:1004700075E088EA94E10E94453364E076E088EA1A
:1004800094E10E94453365E276E088EA94E10E94B7
:10049000453368E576E088EA94E10E94453360E7F9
:1004A00076E088EA94E10E9445336BE876E020C06C
:1004B000813609F041C0F80101900020E9F7319739
:1004C000E01BF10B329710F40C941D0EF801118112
:1004D000105389EA96E00E94FB1CE12E012E000CCD
:1004E000FF08C7010E94161E103140F06FEA76E047
:1004F00088EA94E10E9445330C94280E8701000F8E
:10050000111F000F111F00501F4EB801C7010E949C
:10051000062B89EA96E00E94FB1CC7010E94461E3A
:1005200081E597E00E94FB1CD8016D917D918D9132
:100530009C9144E050E075C3813409F0B7C166E88E
:1005400077E088EA94E10E94453365EB76E088EA3B
:1005500094E10E94453388EA94E10E94D431892BCA
:1005600011F00C94280E30E0E32E31E1F32E00E080
:1005700010E0B701C8010E94062B82E597E00E94B7
:10058000FB1CF7016081718182819381B4E0EB0EE5
:10059000F11C43E050E00E94151E0F5F1F4F0C300E
:1005A000110539F760910C1170910D1180910E11A8
:1005B00090910F119B01AC010E94FA3C6093FC10DA
:1005C0007093FD108093FE109093FF1072E2672EDF
:1005D00072E1772EEAE2AE2EE2E1BE2EFBE04F2E74
:1005E000F2E05F2EACEE8A2EA0E19A2EF301C190CC
:1005F000D1903F01D501ED90FD900D911D915D01D0
:10060000D201ED91FD912D012091FC103091FD1052
:100610004091FE105091FF10EE0FFF1FEE0FFF1FD5
:10062000E050FF4E60817181828193810E941D2381
:100630008401F40161937193819391934F0181E55A
:1006400097E00E94FB1CD8016D917D918D919C914A
:1006500042E050E00E94151EBAE3AB16B2E1BB06C1
:1006600029F620E030E046E953E4609108117091EA
:10067000091180910A1190910B110E94133C20E006
:1006800030E048EC52E40E94F93C6093E81070932B
:10069000E9108093EA109093EB1081E597E00E94B7
:1006A000FB1C6091E8107091E9108091EA10909124
:1006B000EB1042E050E00E94151EE0903A12F090DC
:1006C0003B1200913C1210913D122091FC10309190
:1006D000FD104091FE105091FF1060912C1170910F
:1006E0002D1180912E1190912F11C12CD12C0E948F
:1006F0001D236093E4107093E5108093E6109093AF
:10070000E71081E597E00E94FB1C6091E410709176
:10071000E5108091E6109091E71042E050E00E94D1
:10072000151EE0903E12F0903F1200914012109181
:1007300041122091FC103091FD104091FE1050911B
:10074000FF1060911C1170911D1180911E119091EC
:100750001F110E941D236093E0107093E11080939D
:10076000E2109093E31080E597E00E94FB1C6091FB
:10077000E0107091E1108091E2109091E31042E05E
:1007800050E00E94151EE0904212F090431200913A
:100790004412109145122091FC103091FD104091AF
:1007A000FE105091FF1060911811709119118091F5
:1007B0001A1190911B110E941D236093DC107093FD
:1007C000DD108093DE109093DF1081E597E00E94AA
:1007D000FB1C6091DC107091DD108091DE10909117
:1007E000DF1042E050E00E94151E20E030E040E8BB
:1007F00050E46091241170912511809126119091FF
:1008000027110E94133C21966CAF7DAF8EAF9FAF36
:10081000219781E597E00E94FB1C21966CAD7DAD90
:100820008EAD9FAD219741E050E00E94151E80E5FE
:1008300097E00E94FB1C6091FC107091FD1080916C
:10084000FE109091FF1043E050E00E94151E20E042
:1008500030E040E850E460912811709129118091B6
:100860002A1190912B110E94133C21966CAF7DAF01
:100870008EAF9FAF219781E597E00E94FB1C2196E8
:100880006CAD7DAD8EAD9FAD219741E050E00E94F3
:10089000151E66E877E088EA94E10E94453364EF2C
:1008A00071E080E090E00E94513555CE8234D1F560
:1008B000F80101900020E9F73197E01BF10B329726
:1008C00010F40C941D0EF801118100ED010F84E568
:1008D00097E00E94FB1C802F002E000C990B0E94B9
:1008E000461E67E577E088EA94E10E94453311539C
:1008F000123008F0FBCD013039F461E089E00E944C
:10090000C73461E08EE10AC0023011F00C94280E69
:1009100061E08AE00E94C73461E08CE10E94C73444
:100920000C94280E8236A1F5F80101900020E9F719
:100930003197E01BF10B329710F40C941D0ED80187
:1009400011961C9100ED010F84E597E00E94FB1CBD
:10095000802F002E000C990B0E94461E6CE577E05C
:1009600088EA94E10E9445331153123008F0BECD5D
:10097000013021F40E9415230C94280E023011F04E
:100980000C94280E60E08AE00E94C73460E0C5CF76
:10099000833461F468EF73E088EA94E10E944533A0
:1009A00060E086E10E94C73461E00DC0833669F4DF
:1009B00066E074E088EA94E10E94453361E086E1F4
:1009C0000E94C73460E08DE0A9CF863681F4F8013B
:1009D00081818F3621F40E94D5240C94280E833611
:1009E00011F00C941D0E0E9423240C94280E8634C2
:1009F00009F051C082E697E00E94FB1C4AE064E1E6
:100A000070E080E090E00E94001D61E777E088EAF6
:100A100094E10E94453385E00E949F34892B41F484
:100A20000E94232468EE73E080E090E00E9451353C
:100A300088E797E00E94FB1C4AE060E070E0CB0191
:100A40000E94001D8FE797E00E94FB1C4AE064E1D2
:100A500070E080E090E00E94001D64E877E088EAA2
:100A600094E10E9430330E94D52468E873E180E06D
:100A700090E00E9451350E94232468E873E180E0F1
:100A800090E00E94513588EA94E10E94D431892B8C
:100A900079F20C94280E883619F567E877E088EA31
:100AA00094E10E94453388EA94E10E94D431892B75
:100AB00011F00C94280E85E00E949F340E94461E7F
:100AC00081E597E00E94FB1C86E00E949F340E9413
:100AD000161E68EE73E080E090E00E945135E3CF8F
:100AE000843799F564E977E088EA94E10E94453318
:100AF000CE0101960E940E2D6BAB7CAB8DAB9EABF5
:100B000081EB97E00E94FB1C6BA97CA98DA99EA993
:100B10004AE00E94001D80E597E00E94FB1CBE0198
:100B20006F5F7F4F88EA94E10E94453388EA94E141
:100B30000E94D431892B11F00C94280E60ED77E0DF
:100B400080E090E00E945135D3CF843609F06DC02B
:100B5000609108127091091280910A1290910B1203
:100B60000E94D8276093D8107093D9108093DA1020
:100B70009093DB1085EC97E00E94FB1C6091D810ED
:100B80007091D9108091DA109091DB1042E050E022
:100B90000E94151E6DEC77E088EA94E10E944533CF
:100BA000F80101900020E9F73197E01BF10B329733
:100BB00010F40C94280EC80101960E94C1392196A8
:100BC0006CAF7DAF8EAF9FAF219782ED97E00E9413
:100BD000FB1C21966CAD7DAD8EAD9FAD219742E0A3
:100BE00050E00E94DF1F21966CAD7DAD8EAD9FADB4
:100BF00021970E94DF286093D8107093D9108093BA
:100C0000DA109093DB108BED97E00E94FB1C609153
:100C1000D8107091D9108091DA109091DB1042E0D9
:100C200050E00E94DF1F0C94280E843409F0ABC002
:100C3000F80101900020E9F73197E01BF10B3297A2
:100C400008F4FBC7609108127091091280910A1292
:100C500090910B120E94D8276093D8107093D910EE
:100C60008093DA109093DB1081EF97E00E94FB1CD9
:100C70006091D8107091D9108091DA109091DB10AA
:100C800042E050E00E94151E6DEC77E088EA94E1A6
:100C90000E94453380E098E00E94FB1C0F5F1F4FCD
:100CA000B80188EA94E10E94453361E072E0CE0128
:100CB0008F5B9F4F0E94083F6CE178E088EA94E1E7
:100CC0000E94453388EA94E10E94EE1F97FD03C01D
:100CD00022968FAF229723961FAE239722968FAD31
:100CE0002297893709F04CC06CE378E088EA94E1F8
:100CF0000E944533C8010E94C1392091D81030911B
:100D0000D9104091DA105091DB100E94F93C2091EB
:100D100008123091091240910A1250910B120E9450
:100D2000FA3C6B017C0121966CAF7DAF8EAF9FAF1B
:100D3000219764E072E0CE0101960E94083F05E031
:100D400021E0B701A601CE01C3960E94FB2B18AE8D
:100D5000BE016D5C7F4FCE0101960E94FD3E68E0B2
:100D600072E0CE0101960E94FD3EBE016F5F7F4F93
:100D700088EA94E10E944533CE010196D3DA68C730
:100D800060E478E0B5CB8B3609F065C163E478E0C8
:100D900088EA94E10E94453300E010E061961CAEC1
:100DA0001DAE1EAE1FAE6197812C912C54012D9665
:100DB0008CAE9DAEAEAEBFAE2D972401350188EA54
:100DC00094E10E94D431892B09F07CC0802F002E41
:100DD000000C990B0E94461E81E597E00E94FB1CC7
:100DE000BE016F5F7F4FCE01CD960E945A2721969C
:100DF000CCACDDACEEACFFAC2197A7019601C301F2
:100E0000B2010E94FA3C2B013C0189819A81AB819D
:100E1000BC8129968CAF9DAFAEAFBFAF29979C0127
:100E2000AD01C501B4010E94FA3C4B015C01A70170
:100E30009601C701B6010E94133C9B01AC012D969F
:100E40006CAD7DAD8EAD9FAD2D970E94FA3C2D9679
:100E50006CAF7DAF8EAF9FAF2D9729962CAD3DAD7A
:100E60004EAD5FAD2997CA01B9010E94133C9B01A9
:100E7000AC0161966CAD7DAD8EAD9FAD61970E946A
:100E8000FA3C61966CAF7DAF8EAF9FAF61970F5FFD
:100E90001F4F40E050E0C701B6010E94151E81E5DA
:100EA00097E00E94FB1C69817A818B819C8143E0E1
:100EB00050E00E94DF1F60ED77E080E090E00E944C
:100EC00051357DCF0430110508F4C2C685E893E0A2
:100ED0000E94FB1C81E597E00E94FB1C65E873E023
:100EE00088EA94E10E944533B80180E090E00E94D6
:100EF000B23B29966CAF7DAF8EAF9FAF29979B0118
:100F0000AC01C301B2010E945E3D65966CAF7DAF3E
:100F10008EAF9FAF659729962CAD3DAD4EAD5FADC1
:100F20002997C501B4010E945E3D4B015C0140E080
:100F300050E065966CAD7DAD8EAD9FAD65970E941E
:100F4000151E81E597E00E94FB1C43E050E0C501BF
:100F5000B4010E94DF1FB8016150710980E090E088
:100F60000E94B23B2B013C019B01AC012D966CAD64
:100F70007DAD8EAD9FAD2D970E945E3D6B017C01D6
:100F800065962CAD3DAD4EAD5FAD659729966CADC8
:100F90007DAD8EAD9FAD29970E94133C65962CAD1B
:100FA0003DAD4EAD5FAD65970E94133CA30192012C
:100FB0000E945E3D9B01AC01C701B6010E94F93C55
:100FC0000E94443E6B017C0121966CAF7DAF8EAFD9
:100FD0009FAF2197A301920161966CAD7DAD8EAD5F
:100FE0009FAD61970E945E3D2D966CAF7DAF8EAF39
:100FF0009FAF2D97A501940129966CAD7DAD8EAD67
:101000009FAD29970E94133CA50194010E94133CB7
:10101000A30192010E945E3D9B01AC012D966CAD37
:101020007DAD8EAD9FAD2D970E94F93C0E94443E50
:1010300069837A838B839C8340E050E0C701B601CB
:101040000E94151E81E597E00E94FB1C69817A8150
:101050008B819C81EFC48C3609F06BC060E578E031
:1010600088EA94E10E94453367E678E088EA94E1F3
:101070000E94453380E395E7A0E0B0E08093AC1494
:101080009093AD14A093AE14B093AF1421E330E06D
:10109000AE014F5F5F4F6DE088EA94E10E941E2031
:1010A000E1E0F0E0EC0FFD1FE80FF11D108289E791
:1010B00098E00E94FB1CBE016F5F7F4F88EA94E1BD
:1010C0000E94453381ED92E10E94D431892B29F0B1
:1010D00081ED92E10E94B231F5CFBE016F5F7F4F8B
:1010E00081ED92E10E94453384E690E0A0E0B0E01B
:1010F0008093D5129093D612A093D712B093D812A2
:101100002DE230E0AE014F5F5F4F6AE081ED92E18A
:101110000E941E20E1E0F0E0EC0FFD1FE80FF11D42
:10112000108287E898E00E94FB1CBE016F5F7F4F32
:10113000DFC9982F9F7D953409F03EC3F8010190D7
:101140000020E9F731979F01201B310B2230310538
:1011500008F47CC52230310509F47AC5D80111960E
:101160008C91833639F5C80102960E94C1392196C7
:101170006CAF7DAF8EAF9FAF21978FE898E00E9454
:10118000FB1C21966CAD7DAD8EAD9FAD219742E0ED
:1011900050E00E94DF1F21968CAD9DADAEADBFAD7E
:1011A00021978093F8119093F911A093FA11B093BD
:1011B000FB114AC5833439F5C80102960E94C13932
:1011C00021966CAF7DAF8EAF9FAF219780EA98E0FC
:1011D0000E94FB1C21966CAD7DAD8EAD9FAD21971D
:1011E00042E050E00E94DF1F21968CAD9DADAEAD78
:1011F000BFAD21978093FC119093FD11A093FE1138
:10120000B093FF1121C5803739F5C80102960E94BD
:10121000C13921966CAF7DAF8EAF9FAF219781EB27
:1012200098E00E94FB1C21966CAD7DAD8EAD9FAD0C
:10123000219742E050E00E94DF1F21968CAD9DADCA
:10124000AEADBFAD21978093041290930512A09389
:101250000612B0930712F8C4803539F5C80102961A
:101260000E94C13921966CAF7DAF8EAF9FAF2197A1
:1012700082EC98E00E94FB1C21966CAD7DAD8EAD9A
:101280009FAD219742E050E00E94DF1F21968CAD78
:101290009DADAEADBFAD219780930012909301122A
:1012A000A0930212B0930312CFC48A3639F5C80155
:1012B00002960E94C13921966CAF7DAF8EAF9FAF71
:1012C000219785ED98E00E94FB1C21966CAD7DADC9
:1012D0008EAD9FAD219745E050E00E94DF1F219623
:1012E0008CAD9DADAEADBFAD2197809314129093A0
:1012F0001512A0931612B0931712A6C48A3439F5AA
:10130000C80102960E94C13921966CAF7DAF8EAFA5
:101310009FAF219789EE98E00E94FB1C21966CAD4F
:101320007DAD8EAD9FAD219743E050E00E94DF1F61
:1013300021968CAD9DADAEADBFAD219780931812B7
:1013400090931912A0931A12B0931B127DC4873682
:1013500039F5C80102960E94C13921966CAF7DAF64
:101360008EAF9FAF21978CEF98E00E94FB1C2196D7
:101370006CAD7DAD8EAD9FAD219745E050E00E94F4
:10138000DF1F21968CAD9DADAEADBFAD2197809393
:10139000661290936712A0936812B093691254C4B6
:1013A000873439F5C80102960E94C13921966CAF85
:1013B0007DAF8EAF9FAF219784E199E00E94FB1C27
:1013C00021966CAD7DAD8EAD9FAD219743E050E091
:1013D0000E94DF1F21968CAD9DADAEADBFAD2197B4
:1013E00080936A1290936B12A0936C12B0936D125B
:1013F0002BC4883639F5C80102960E94C13921965E
:101400006CAF7DAF8EAF9FAF219782E299E00E94D3
:10141000FB1C21966CAD7DAD8EAD9FAD219746E056
:1014200050E00E94DF1F21968CAD9DADAEADBFADEB
:10143000219780936E1290936F12A0937012B093C5
:10144000711202C4883489F42430310541F4F80162
:1014500082818053809320128381805303C0109235
:10146000201281E080932112EFC3813409F049C03A
:10147000D80112962C912053243018F063E379E0C0
:1014800037C8C801039666962FAF66970E94C13988
:1014900021966CAF7DAF8EAF9FAF21978AE399E025
:1014A0000E94FB1C66962FAD6697022F220F110B30
:1014B000C8010E94461E87E499E00E94FB1C219609
:1014C0006CAD7DAD8EAD9FAD219741E050E00E94A7
:1014D000151E6CE479E088EA94E10E944533000F20
:1014E000111F000F111FF801E65DFD4E21968CAD16
:1014F0009DADAEADBFAD219780839183A283B383B1
:10150000A7C3823539F5C80102960E94C1392196D8
:101510006CAF7DAF8EAF9FAF219782E599E00E94BF
:10152000FB1C21966CAD7DAD8EAD9FAD219742E049
:1015300050E00E94DF1F21968CAD9DADAEADBFADDA
:10154000219780930C1290930D12A0930E12B093DA
:101550000F127AC38534E1F488E699E00E94FB1CFF
:10156000C80102960E94C439182F811103C063E795
:1015700079E007C0813019F467E779E002C063E8D9
:1015800079E088EA94E10E9445331093F7115CC337
:101590008237E9F4C80102960E94C439182F88E9FD
:1015A00099E00E94FB1C812F012E000C990B0E94D8
:1015B000161E812F110F990BAA0BBB0B80931C12C7
:1015C00090931D12A0931E12B0931F123DC3982F2B
:1015D0009F7D943439F5C80102960E94C139219645
:1015E0006CAF7DAF8EAF9FAF21978FEA99E00E94DD
:1015F000FB1C21966CAD7DAD8EAD9FAD219742E079
:1016000050E00E94DF1F21968CAD9DADAEADBFAD09
:1016100021978093081290930912A0930A12B09315
:101620000B1212C3863439F5C80102960E94C139E3
:1016300021966CAF7DAF8EAF9FAF219782EC99E082
:101640000E94FB1C21966CAD7DAD8EAD9FAD2197A8
:1016500042E050E00E94DF1F21968CAD9DADAEAD03
:10166000BFAD21978093101290931112A093121284
:10167000B0931312E9C2823479F4C80102960E9431
:10168000C439182F88ED99E00E94FB1C812F0E941D
:10169000B2391093F311D8C2853579F4C801029696
:1016A0000E94C439182F88EE99E00E94FB1C812FFC
:1016B0000E94B2391093F411C7C2843579F4C8017D
:1016C00002960E94C439182F89EF99E00E94FB1CF2
:1016D000812F0E94B2391093F511B6C28D3479F47E
:1016E000C80102960E94C439182F8CE09AE00E942B
:1016F000FB1C812F0E94B2391093F611A5C28E34C3
:1017000071F5F80122812053243038F063E379E049
:1017100088EA94E10E94453397C2C8010396669611
:101720002FAF66970E94C4397C018EE19AE00E9437
:10173000FB1C66962FAD6697022F220F110BC80176
:101740000E94461E87E499E00E94FB1CC7010E948C
:10175000161E000F111FF801EA58FD4E2AC08F34E3
:1017600009F076C2D80112962C912053243070F6DD
:10177000C801039666962FAF66970E94C4397C0114
:1017800080E39AE00E94FB1C66962FAD6697022FBD
:10179000220F110BC8010E94461E87E499E00E94A7
:1017A000FB1CC7010E94161E000F111FF801E05913
:1017B000FD4EF182E08248C28D3639F08D34E9F475
:1017C0000E9406236FE47AE006C081E090E00E9468
:1017D0008E2561E47AE088EA94E10E94453388EA44
:1017E00094E10E94D431892BD1F380E090E00E94F3
:1017F0008E256CE57AE00C9478028037E9F56BE68B
:101800007AE088EA94E10E94453310E088EA94E1A6
:101810000E94D431892B09F01BC2812F012E000CAC
:10182000990B0E94461E81E597E00E94FB1CBE01B9
:101830006F5F7F4FCE01CD960E94B52521966CAD8E
:101840007DAD8EAD9FAD219742E050E00E94151E08
:1018500081E597E00E94FB1C69817A818B819C81E4
:1018600042E050E00E94DF1F68EE73E080E090E00D
:101870000E9451351F5FCACF823709F04DC06BE718
:101880007AE088EA94E10E94453310E088EA94E126
:101890000E94D431892B09F0DBC1812F012E000C6D
:1018A000990B0E94461E81E597E00E94FB1CBE0139
:1018B0006D5C7F4FCE01CD960E94E2308091C915BC
:1018C000082E000C990B0E94461E80E597E00E94AE
:1018D000FB1C21966CAD7DAD8EAD9FAD219742E096
:1018E00050E00E94151E81E597E00E94FB1C6BA949
:1018F0007CA98DA99EA94AE00E94001D64E877E0BA
:1019000088EA94E10E94303368EE73E080E090E072
:101910000E9451351F5FBACF873799F5F8010190C2
:101920000020E9F73197E01BF10B329708F485C1ED
:10193000C80101960E94C13921966CAF7DAF8EAF70
:101940009FAF21970E94711E69837A838B839C834A
:1019500085E99AE00E94FB1C21966CAD7DAD8EADB1
:101960009FAD219741E050E00E94151E81EA9AE068
:101970000E94FB1C69817A818B819C8146E050E04A
:1019800050C9873509F059C0F80101900020E9F7E6
:101990003197E01BF10B329708F44FC1C801019653
:1019A0000E94C13921966CAF7DAF8EAF9FAF21975A
:1019B0000E94962A69837A838B839C8380EB9AE0CA
:1019C0000E94FB1C21966CAD7DAD8EAD9FAD219725
:1019D00043E050E00E94151E87EB9AE00E94FB1C3A
:1019E00069817A818B819C8146E050E00E94DF1FF3
:1019F00069817A818B819C810E943B2A21966CAF00
:101A00007DAF8EAF9FAF21978FEB9AE00E94FB1CBA
:101A100069817A818B819C8146E050E00E94151E8D
:101A200086EC9AE00E94FB1C21966CAD7DAD8EADDC
:101A30009FAD219743E050E0F4C8883709F087C094
:101A40006EEC7AE088EA94E10E94453364E07BE042
:101A500088EA94E10E94453364E17EEA8EE991E4EC
:101A60000E94962A6B017C016AEB79E489E092E49A
:101A70000E94962A2B013C0120E030E0A901C70119
:101A8000B6010E94133C4B015C019B01AC01C701F4
:101A9000B6010E94F93C6B017C01A5019401C301D0
:101AA000B2010E94F93CA70196010E94F93C4B014A
:101AB0005C0127EA3CE042E75EEB0E94133C9B019D
:101AC000AC01C701B6010E94FA3C2B013C0122E89F
:101AD00039EB40EB5FEBC501B4010E94133C9B0165
:101AE000AC01C701B6010E94FA3C20E03FE44CE49F
:101AF0005CE30E94133C9B01AC01C301B2010E9454
:101B0000F93C24EC3EEC4CE75FE30E945E3D0E9412
:101B10003B2A26E53DE74EE25DE30E94F93C219633
:101B20006CAF7DAF8EAF9FAF219787E49BE00E94A3
:101B3000FB1C21966CAD7DAD8EAD9FAD219743E032
:101B400050E00E94151E6FE47BE00C94780288350B
:101B500029F586E09CE2A3E9BEE421968CAF9DAF17
:101B6000AEAFBFAF21970CE020E0AC01BD01CE01CC
:101B700001960E94FB2B21966CAD7DAD8EAD9FAD85
:101B8000219746E050E00E94151E80E597E00E94F4
:101B9000FB1CCE0101960E94FB1C5AC0833709F042
:101BA00045C0F80101900020E9F73197E01BF10BE7
:101BB000329708F442C0F80181818053813041F4AA
:101BC00065E57BE088EA94E10E94453310E213C0AA
:101BD000823041F469E67BE088EA94E10E94453373
:101BE00018E109C0833061F768E77BE088EA94E197
:101BF0000E9445331AE188EA94E10E94D431892B8E
:101C000039F561E0812F0E94C73464EF71E080E014
:101C100090E00E94513560E0812F0E94C73464EF4C
:101C200071E080E090E00E945135E5CF963519F4DF
:101C30000E94BB280DC0973459F0C8010E94FB1CBC
:101C40006AE87BE00C9478020E9482300E94202E89
:101C5000CB5ADF4F0FB6F894DEBF0FBECDBFDF917A
:101C6000CF911F910F91FF90EF90DF90CF90BF9099
:101C7000AF909F908F907F906F905F904F9008955E
:101C80002F923F924F925F926F927F928F929F928C
:101C9000AF92BF92CF92DF92EF92FF920F931F937A
:101CA000CF93DF93CDB7DEB7C455D8400FB6F894C5
:101CB000DEBF0FBECDBF88EE93E0A0E0B0E0809322
:101CC000AC149093AD14A093AE14B093AF1488EA03
:101CD00094E10E94EE1F97FD06C0CF5FD74F888327
:101CE000C150D84006C08091D5119091D61101976E
:101CF00041F4CF5FD74F8881C150D8408F7D843564
:101D000091F080912012082E000C990B81309105E2
:101D100009F080C061E089E00E94C73461E08EE193
:101D20000E94C7347BC00E9489356093D1117093A3
:101D3000D2118093D3119093D4111092D611109296
:101D4000D5118FEF8093D01180E197E2A0E0B0E051
:101D50008093AC149093AD14A093AE14B093AF14D1
:101D600011E08091D0118F3F61F60E948935C090BB
:101D7000D111D090D211E090D311F090D411DC01A8
:101D8000CB018C199D09AE09BF0981369A4EA10578
:101D9000B10508F0B6CF8BE99BE00E94FB1C2BE05D
:101DA00030E0AE014F5F574F6DE088EA94E10E944A
:101DB0001E20E1E0F8E0EC0FFD1FE80FF91F108294
:101DC0001816190674F6CF5FD74F8881C150D840D6
:101DD0008F7D873449F41093D0116EE97BE088EA57
:101DE00094E10E944533BDCF66E877E088EA94E14C
:101DF0000E944533CE018F5F974F0E9492010E944F
:101E000089356093D1117093D2118093D31190933F
:101E1000D411A7CF892B11F40E9415238091211290
:101E2000082E000C990B8130910531F461E08AE0B5
:101E30000E94C73461E007C0892B41F460E08AE06A
:101E40000E94C73460E08CE10E94C734E091DC114D
:101E5000F091DD11EE0FFF1FEE0FFF1FEE51FE4E52
:101E600060817181828193810E94DF286093D81004
:101E70007093D9108093DA109093DB1063E172E0D5
:101E8000CE0101960E94083FCE018F5F974F0E94BE
:101E90000E2DBE016F5F774FCE0101960E94FD3E71
:101EA0006CE172E0CE0101960E94FD3E4091D81097
:101EB0005091D9106091DA107091DB1006E022E0A9
:101EC000CE018F5F974F0E94FB2BBE016F5F774F54
:101ED000CE0101960E94FD3E6CE172E0CE010196BA
:101EE0000E94FD3E8090D8109090D910A090DA10FA
:101EF000B090DB1020E030E0A901C501B4010E94E0
:101F0000F73D1816ECF50091DC111091DD11780108
:101F1000EE0CFF1CEE0CFF1CC70180549E4E6C01A2
:101F2000A5019401DC016D917D918D919C910E94A0
:101F3000FA3CF6016083718382839383C7018055E5
:101F40009E4E7C01A5019401C501B4010E94133C81
:101F50009B01AC01D7016D917D918D919C910E9467
:101F6000FA3CF7016083718382839383000F111F12
:101F7000F801E855FE4E808191810196918380831E
:101F8000BE01675E774FCE01835E974F0E945A274E
:101F9000C35ED74F488159816A817B81CD51D8403A
:101FA00007E020E0CE018F5F974F0E94FB2BBE0120
:101FB0006F5F774FCE0101960E94FD3E65EB7BE09F
:101FC000CE0101960E94FD3EC75ED74F48815981E0
:101FD0006A817B81C951D84005E022E0CE018F5F44
:101FE000974F0E94FB2BBE016F5F774FCE0101968A
:101FF0000E94FD3E65EB7BE0CE0101960E94FD3E16
:10200000C35ED74F88809980AA80BB80CD51D840CD
:1020100020E030E0A901C501B4010E94F73D181687
:10202000ECF50091DC111091DD117801EE0CFF1C34
:10203000EE0CFF1CC70188569E4E6C01A501940151
:10204000DC016D917D918D919C910E94FA3CF6018D
:102050006083718382839383C70188579E4E7C017E
:10206000A5019401C501B4010E94133C9B01AC0180
:10207000D7016D917D918D919C910E94FA3CF70161
:102080006083718382839383000F111FF801E058EE
:10209000FE4E8081918101969183808360E086E18C
:1020A0000E94C73461E08DE00E94C73462E370E0B3
:1020B00080E090E00E945135F0E0CF2EF1E1DF2E7C
:1020C000E12CF12CB601C7010E94062BF6014081DC
:1020D000518162817381F4E0CF0ED11C05E023E0D1
:1020E000CE018F5F974F0E94FB2BBE016F5F774F32
:1020F000CE0101960E94FD3E65EB7BE0CE0101968C
:102100000E94FD3E2FEFE21AF20A8CE0E816F1047D
:10211000C9F661E086E10E94C73460E08DE00E946C
:10212000C73460910C1170910D1180910E11909136
:102130000F119B01AC010E94FA3CAB01BC01409322
:10214000FC105093FD106093FE107093FF1023E07D
:10215000CE018F5F974F0E94FB2BBE016F5F774FC1
:10216000CE0101960E94FD3E65EB7BE0CE0101961B
:102170000E94FD3EA2E2B2E1CF5DD74FB983A883B2
:10218000C152D8407AE2272E72E1372EEBE0F2E01E
:10219000CB5DD74FF983E883C552D840ECEE8E2E45
:1021A000E0E19E2E80E791E1C35DD74F998388835C
:1021B000CD52D840A0E6B1E1C15DD74FB983A88325
:1021C000CF52D840E8E5F1E1CB5BD74FF983E88304
:1021D000C554D8402F013D015C01CF5DD74FA88188
:1021E000B981C152D840CD90DD90CF5DD74FB98332
:1021F000A883C152D840F101E190F1900191119171
:102200001F01CB5DD74FA881B981C552D840ED9150
:10221000FD91CB5DD74FB983A883C552D84020919B
:10222000FC103091FD104091FE105091FF10EE0F08
:10223000FF1FEE0FFF1FE050FF4E60817181828112
:1022400093810E941D236B017C01F40160837183E3
:102250008283938320E030E040EA50EC0E94AE3B62
:1022600087FD0AC020E030E04CE852E4C701B60127
:102270000E94F73D18163CF461EB7BE0CE0101961D
:102280000E94FD3E45C005E022E0B701A601CE0157
:102290008F5F974F0E94FB2BBE016F5F774FCE0180
:1022A00001960E94FD3E65EB7BE0CE0101960E9407
:1022B000FD3ED401CD90DD90ED90FC90A7019601FC
:1022C000F50160817181828193810E94FA3CD50180
:1022D0006D937D938D939C931397A7019601C701EE
:1022E000B6010E94133C9B01AC01F3016081718136
:1022F000828193810E94FA3CD3016D937D938D93EB
:102300009C931397F2018081918101969183808340
:10231000F4E08F0E911C24E0A20EB11C84E0680E44
:10232000711C92E0490E511CAAE32A16A2E13A065A
:1023300009F053CFBE01675E774FCE01835E974FA2
:102340000E94B525C35ED74FC880D980EA80FB8044
:10235000CD51D84020E030EC49E754ECC701B6013C
:102360000E94AE3B811107C061EB7BE0CE0101967C
:102370000E94FD3E55C004E021E0B701A601CE0158
:102380008F5F974F0E94FB2BBE016F5F774FCE018F
:1023900001960E94FD3E65EB7BE0CE0101960E9416
:1023A000FD3E8091561190915711019690935711CF
:1023B00080935611C35ED74FC880D980EA80FB80D6
:1023C000CD51D840A70196016091521170915311DF
:1023D00080915411909155110E94FA3C60935211D2
:1023E000709353118093541190935511A701960146
:1023F000C701B6010E94133C9B01AC0160914E11D4
:1024000070914F1180915011909151110E94FA3C9E
:1024100060934E1170934F1180935011909351110E
:10242000C75ED74FC880D980EA80FB80C951D840A9
:1024300020E030EC49E754ECC701B6010E94AE3B06
:10244000811107C061EB7BE0CE0101960E94FD3E49
:1024500055C004E021E0B701A601CE018F5F974F80
:102460000E94FB2BBE016F5F774FCE0101960E9449
:10247000FD3E65EB7BE0CE0101960E94FD3E809122
:102480004C1190914D11019690934D1180934C11E8
:10249000C75ED74FC880D980EA80FB80C951D84039
:1024A000A7019601609148117091491180914A11DC
:1024B00090914B110E94FA3C60934811709349111E
:1024C00080934A1190934B11A7019601C701B60161
:1024D0000E94133C9B01AC01609144117091451125
:1024E00080914611909147110E94FA3C60934411EB
:1024F00070934511809346119093471120E030E08E
:1025000046E953E4609108117091091180910A1114
:1025100090910B110E94133C20E030E048EC52E413
:102520000E94F93CAB01BC014093E8105093E910C4
:102530006093EA107093EB1005E022E0CE018F5F0C
:10254000974F0E94FB2BBE016F5F774FCE01019624
:102550000E94FD3E65EB7BE0CE0101960E94FD3EB0
:10256000E0903A12F0903B1200913C1210913D1213
:102570002091FC103091FD104091FE105091FF1001
:1025800060912C1170912D1180912E1190912F112D
:10259000C12CD12C0E941D23AB01BC014093E4103F
:1025A0005093E5106093E6107093E71005E022E089
:1025B000CE018F5F974F0E94FB2BBE016F5F774F5D
:1025C000CE0101960E94FD3E65EB7BE0CE010196B7
:1025D0000E94FD3EE0903E12F0903F1200914012AA
:1025E000109141122091FC103091FD104091FE108D
:1025F0005091FF1060911C1170911D1180911E115E
:1026000090911F110E941D23AB01BC014093E0106B
:102610005093E1106093E2107093E31005E022E024
:10262000CE018F5F974F0E94FB2BBE016F5F774FEC
:10263000CE0101960E94FD3E65EB7BE0CE01019646
:102640000E94FD3EE0904212F0904312009144122D
:10265000109145122091FC103091FD104091FE1018
:102660005091FF10609118117091191180911A11F9
:1026700090911B110E941D23AB01BC014093DC1003
:102680005093DD106093DE107093DF1005E022E0C0
:10269000CE018F5F974F0E94FB2BBE016F5F774F7C
:1026A000CE0101960E94FD3E65EB7BE0CE010196D6
:1026B0000E94FD3E23EC35EF40E850E46091241188
:1026C0007091251180912611909127110E94133C41
:1026D00020E030E040E05FE30E94FA3CAB01BC0147
:1026E000C35ED74F488359836A837B83CD51D840DB
:1026F00004E021E0CE018F5F974F0E94FB2BBE01CB
:102700006F5F774FCE0101960E94FD3E65EB7BE047
:10271000CE0101960E94FD3EBE016B5E774FCE0159
:10272000835E974F0E94E230C35ED74FC880D98046
:10273000EA80FB80CD51D84020E030EC49E754ECF2
:10274000C701B6010E94AE3B811103C067EB7BE07D
:102750002CC004E021E0B701A601CE018F5F974FA6
:102760000E94FB2BBE016F5F774FCE0101960E9446
:10277000FD3E65EB7BE0CE0101960E94FD3ECB5E07
:10278000D74F688179818A819B81C551D8400E9449
:10279000B23BAB01BC0103E020E0CE018F5F974F5D
:1027A0000E94FB2BBE016F5F774FCE0101960E9406
:1027B000FD3E8091C915813019F40E94232402C086
:1027C0000E94D524CE0102960E94D6308C01CE0103
:1027D00001960E94FB1C81EC9BE00E94FB1CB8014F
:1027E00080E090E040E10E94001D84E897E00E94B4
:1027F000FB1C8091C915813089F48093000280917F
:10280000DC119091DD11029764F01092DD111092AD
:10281000DC111092DB111092DA1103C083E0809377
:1028200000022091DA113091DB112F5F3F4F30937E
:10283000DB112093DA118091DC119091DD11FC0104
:10284000E252FE4E408150E0241735070CF42BC7AE
:1028500001969093DD118093DC1120910002422FAC
:1028600050E0481759074CF41092DD111092DC111A
:10287000233019F481E08093D9118091D9118130EE
:1028800009F00DC77E01BFEFEB1AB9EFFB0A6FE14C
:1028900072E0C7010E94083F8E010F5F1B4F68E284
:1028A00072E0C8010E94083FCE018F5F974F0E94DF
:1028B0000E2DBE016F5F774FC7010E94FD3E65EB95
:1028C0007BE0C7010E94FD3EBE016F5F774FC801EC
:1028D0000E94FD3E65EB7BE0C8010E94FD3EE8EAF8
:1028E000F1E1C75BD74FF983E883C954D84050EB77
:1028F000252E51E1352E80EC91E1C55BD74F9983B0
:102900008883CB54D8405C0161014F01702ED40103
:102910004D915D914D01B601C501D6D7F5014081BC
:10292000518162817381B4E0AB0EB11C06E022E0FC
:10293000CE018F5F974F0E94FB2BBE016F5F774FD9
:10294000C7010E94FD3E65EB7BE0C7010E94FD3E92
:10295000BE016F5F774F872D912F0E94FD3E65EB83
:102960007BE0872D912F0E94FD3EE4E0CE0ED11C2E
:10297000F0ECCF16F1E1DF0651F680E891E1CF5C93
:10298000D74F99838883C153D840A8E9B1E1CD5C82
:10299000D74FB983A883C353D840E8E8F1E1C95BB6
:1029A000D74FF983E883C754D8406F017D014C01AC
:1029B000D4014D915D914D018701B601C70184D7C6
:1029C000B4E0EB0EF11CF80140815181628173810A
:1029D00006E020E0CE018F5F974F0E94FB2BBE01E7
:1029E0006F5F774FCE018F5F994F0E94FD3E65EB81
:1029F0007BE0CE018F5F994F0E94FD3EBE016F5F6D
:102A0000774FCE018F5F9B4F0E94FD3E65EB7BE0D1
:102A1000CE018F5F9B4F0E94FD3EF60140815181A8
:102A200062817381F4E0CF0ED11C04E021E0CE017D
:102A30008F5F974F0E94FB2BBE016F5F774FCE01D8
:102A40008F5F994F0E94FD3E65EB7BE0CE018F5F6B
:102A5000994F0E94FD3E28EAE21621E1F20609F0B4
:102A6000A7CF20E6C22E21E1D22E30E7E32E31E1BE
:102A7000F32E48E5842E41E1942ED4014D915D91D1
:102A80004D018701B601C7011FD7B4E0EB0EF11C61
:102A9000F801408151816281738105E022E0CE011D
:102AA0008F5F974F0E94FB2BBE016F5F774FCE0168
:102AB0008F5F994F0E94FD3E65EB7BE0CE018F5FFB
:102AC000994F0E94FD3EF6014081518162817381E0
:102AD000F4E0CF0ED11C04E022E0CE018F5F974FCF
:102AE0000E94FB2BBE016F5F774FCE018F5F994F26
:102AF0000E94FD3E65EB7BE0CE018F5F994F0E9407
:102B0000FD3E20E8E21621E1F20609F0B6CF109270
:102B10004011109241111092421110924311C09035
:102B20007011D0907111E0907211F090731120E04B
:102B300030E040EA51ECC701B6010E94F73D18169B
:102B40005CF4C0924011D0924111E0924211F09297
:102B5000431101E010E002C000E010E0C0907411E9
:102B6000D0907511E0907611F090771120E030E070
:102B700040EA51ECC701B6010E94F73D1816C4F4B3
:102B8000A70196016091401170914111809142110D
:102B9000909143110E94FA3C60934011709341114F
:102BA0008093421190934311B8016F5F7F4F1AC019
:102BB000012BB1F480E090ECA9E7B4EC80934011D4
:102BC00090934111A0934211B093431161EB7BE0CC
:102BD000CE018F5F994F0E94FD3E61EB7BE03EC0CE
:102BE00061E070E0072E000C880B990B0E94B43B4B
:102BF0009B01AC0160914011709141118091421193
:102C0000909143110E945E3DAB01BC014093401185
:102C100050934111609342117093431106E023E0F9
:102C2000CE018F5F974F0E94FB2BBE016F5F774FE6
:102C3000CE018F5F994F0E94FD3E65EB7BE0CE0198
:102C40008F5F994F0E94FD3EBE016F5F774FCE01AF
:102C50008F5F9B4F0E94FD3E65EB7BE0CE018F5F57
:102C60009B4F0E94FD3E10923C1110923D1110921C
:102C70003E1110923F11C0907811D0907911E090E0
:102C80007A11F0907B1120E030E040EA51ECC7016E
:102C9000B6010E94F73D18165CF4C0923C11D09228
:102CA0003D11E0923E11F0923F1101E010E002C0B0
:102CB00000E010E0C0907C11D0907D11E0907E117A
:102CC000F0907F1120E030E040EA51ECC701B601FE
:102CD0000E94F73D1816C4F4A701960160913C11BB
:102CE00070913D1180913E1190913F110E94FA3CEC
:102CF00060933C1170933D1180933E1190933F116E
:102D0000B8016F5F7F4F1AC0012BB1F480E090ECE7
:102D1000A9E7B4EC80933C1190933D11A0933E1130
:102D2000B0933F1161EB7BE0CE018F5F994F0E9422
:102D3000FD3E61EB7BE03EC061E070E0072E000CE1
:102D4000880B990B0E94B43B9B01AC0160913C1134
:102D500070913D1180913E1190913F110E945E3D16
:102D6000AB01BC0140933C1150933D1160933E1167
:102D700070933F1106E023E0CE018F5F974F0E94D2
:102D8000FB2BBE016F5F774FCE018F5F994F0E9483
:102D9000FD3E65EB7BE0CE018F5F994F0E94FD3ECB
:102DA000BE016F5F774FCE018F5F9B4F0E94FD3E4C
:102DB00065EB7BE0CE018F5F9B4F0E94FD3E409113
:102DC0005611509157116EE471E182E591E17CD585
:102DD00040915211509153116091541170915511BD
:102DE00005E022E0CE018F5F974F0E94FB2BBE01D2
:102DF0006F5F774FCE018F5F994F0E94FD3E65EB6D
:102E00007BE0CE018F5F994F0E94FD3E40914E11B5
:102E100050914F11609150117091511122E0CE01EB
:102E20008F5F974F0E94FB2BBE016F5F774FCE01E4
:102E30008F5F994F0E94FD3E65EB7BE0CE018F5F77
:102E4000994F0E94FD3E40914C1150914D1164E408
:102E500071E188E491E138D54091481150914911D0
:102E600060914A1170914B1122E0CE018F5F974F14
:102E70000E94FB2BBE016F5F774FCE018F5F994F92
:102E80000E94FD3E65EB7BE0CE018F5F994F0E9473
:102E9000FD3E409144115091451160914611709151
:102EA000471122E0CE018F5F974F0E94FB2BBE019E
:102EB0006F5F774FCE018F5F994F0E94FD3E65EBAC
:102EC0007BE0CE018F5F994F0E94FD3E209148111B
:102ED0003091491140914A1150914B116091CC11A0
:102EE0007091CD118091CE119091CF110E94F93C3B
:102EF000AB01BC01409338115093391160933A11E2
:102F000070933B1121E0CE018F5F974F0E94FB2B06
:102F1000BE016F5F774FCE018F5F994F0E94FD3EDC
:102F200065EB7BE0CE018F5F994F0E94FD3EBE01B5
:102F30006F5F774FCE018F5F9B4F0E94FD3E65EB29
:102F40007BE0CE018F5F9B4F0E94FD3E8091F71189
:102F5000813069F480E090E0A0E8BFE38093341111
:102F600090933511A0933611B093371111C0609131
:102F700038117091391180913A1190913B11B1D66D
:102F800060933411709335118093361190933711FB
:102F90004091341150913511609136117091371173
:102FA00008E026E0CE018F5F974F0E94FB2BBE0109
:102FB0006F5F774FCE018F5F994F0E94FD3EBE013C
:102FC0006F5F774FCE018F5F9B4F0E94FD3E65EB99
:102FD0007BE0CE018F5F9B4F0E94FD3E0091F71179
:102FE00080916A1290916B12A0916C12B0916D1247
:102FF000CB5CD74F88839983AA83BB83C553D840C2
:103000008091661290916712A0916812B091691236
:10301000C75CD74F88839983AA83BB83C953D840A1
:1030200080916E1290916F12A0917012B0917112F6
:10303000C75DD74F88839983AA83BB83C952D84081
:103040008091341190913511A0913611B0913711C2
:10305000CB5DD74F88839983AA83BB83C552D84061
:103060008091A4119091A511A091A611B091A711E2
:10307000C35CD74F88839983AA83BB83CD53D84041
:103080008091A0119091A111A091A211B091A311D2
:10309000CF5BD74F88839983AA83BB83C154D84021
:1030A00080909C1190909D11A0909E11B0909F11C6
:1030B0008091981190919911A0919A11B0919B11C2
:1030C000CF5DD74F88839983AA83BB83C152D840F1
:1030D00040903C1150903D1160903E1170903F1116
:1030E000C0904011D0904111E0904211F0904311F6
:1030F00020E030EC49E754ECC701B6010E94AE3B3A
:10310000882309F4C0C120E030EC49E754ECC30146
:10311000B2010E94AE3B882309F4B5C120E030E043
:10312000A901C701B6010E94F73D18160CF0ABC10A
:10313000A7019601C301B2010E94F93C20E030E0F2
:1031400040EA50E40E94F73D18160CF09CC120E0C4
:1031500030EC49E754ECCF5BD74F688179818A81A5
:103160009B81C154D8400E94AE3B882309F48BC197
:1031700020E030EC49E754ECC35CD74F688179819B
:103180008A819B81CD53D8400E94AE3B882309F4AD
:103190007AC120E030EC49E754ECCF5DD74F68812D
:1031A00079818A819B81C152D8400E94AE3B88239D
:1031B00009F469C120E030EC49E754ECC501B401E1
:1031C0000E94AE3B882309F45EC120E030E0A901F3
:1031D000C501B4010E94F73D18160CF054C120E05F
:1031E00030E0A901CF5DD74F688179818A819B81C9
:1031F000C152D8400E94F73D18160CF044C1CF5D73
:10320000D74F288139814A815B81C152D840C5019D
:10321000B4010E94F73D18160CF035C1C701B60184
:103220000E94962A6B017C01C301B2010E94962A7A
:10323000CF5AD74F688379838A839B83C155D840FF
:10324000C75DD74F288139814A815B81C952D840F7
:1032500060E070E080E89FE30E94F93CA7019601DE
:103260000E94133C2B013C01A7019601C75DD74F7B
:10327000688179818A819B81C952D8400E94133C20
:10328000A30192010E94F93C6B017C01CF5DD74FF5
:10329000288139814A815B81C152D840C501B4017E
:1032A0000E94F93CC35BD74F688379838A839B83F1
:1032B000CD54D840CF5DD74F288139814A815B8179
:1032C000C152D840C35CD74F688179818A819B8184
:1032D000CD53D8400E94F93CC35BD74F2881398138
:1032E0004A815B81CD54D8400E945E3D4B015C0118
:1032F000CF5AD74F288139814A815B81C155D84047
:10330000C75DD74F688179818A819B81C952D84036
:103310000E94133CA30192010E94F93CA70196016F
:103320000E94F93C2B013C01A5019401C75CD74FD9
:10333000688179818A819B81C953D8400E94133C5E
:103340009B01AC01C301B2010E94133C9B01AC0183
:10335000C701B6010E94FA3C4B015C01CF5DD74F1B
:10336000288139814A815B81C152D840CF5BD74FD8
:10337000688179818A819B81C154D8400E94F93C3F
:103380009B01AC01C75CD74F688179818A819B81A1
:10339000C953D8400E94133CC35BD74F2881398161
:1033A0004A815B81CD54D8400E945E3D9B01AC01B7
:1033B000C301B2010E94133C9B01AC01C701B601DD
:1033C0000E94FA3C6B017C01CB5DD74F288139818B
:1033D0004A815B81C552D84060E070E080E89FE39D
:1033E0000E94F93C9B01AC01C701B6010E94133C4D
:1033F0009B01AC01C501B4010E94F93CCB5DD74FE4
:10340000288139814A815B81C552D8400E945E3D46
:103410006B017C01013061F480E090E0A0E8BFE343
:10342000CB5DD74F88839983AA83BB83C552D8408D
:10343000CB5DD74F288139814A815B81C552D84005
:10344000C501B4010E945E3D0E943B2ACB5CD74F70
:10345000288139814A815B81C553D8400E94FA3C5A
:10346000962EA72EB82E192FC701B6010E943B2A0F
:10347000CB5CD74F288139814A815B81C553D840C5
:103480000E94FA3C0AC0912C80ECA82E99E7B92E34
:1034900014EC60E070EC89E794EC013021F0962E9A
:1034A000A72EB82E192F892D9A2DAB2DB12F8093D1
:1034B000301190933111A0933211B093331105E084
:1034C00022E0492D5A2D6B2D712FCE018F5F974F22
:1034D0000E94FB2BBE016F5F774FCE018F5F9B4F2A
:1034E0000E94FD3E81E096E08C0F9D1F01960E9498
:1034F000D6308C01CE018F5F994F7DD281EC9BE05D
:103500007AD2B80180E090E040E17AD284E897E096
:1035100072D281E094E08C0F9D1F01960E94D630FC
:103520008C01CE018F5F9B4F66D281EC9BE063D212
:10353000B80180E090E040E163D284E897E05BD29C
:1035400084E090E0D1011D921D921D921D921D01FB
:10355000C55BD74FE881F981CB54D84011921192C5
:1035600011921192C55BD74FF983E883CB54D840B1
:10357000C75BD74FA881B981C954D8401D921D920D
:10358000C75BD74FB983A883C954D840C95BD74F0D
:10359000E881F981C754D840119211921192119289
:1035A000C95BD74FF983E883C754D840CD5CD74F68
:1035B000A881B981C353D8401D921D921D921D92BE
:1035C000CD5CD74FB983A883C353D840CF5CD74FC6
:1035D000E881F981C153D84011921192CF5CD74F45
:1035E000F983E883C153D840C15DD74FA881B98121
:1035F000CF52D8401D921D921D921D92C15DD74F92
:10360000B983A883CF52D840C35DD74FE881F981F1
:10361000CD52D8401192119211921192C35DD74FA1
:10362000F983E883CD52D840CB5BD74FA881B981CD
:10363000C554D8401D921D92CB5BD74FB983A88348
:10364000C554D840019709F07DCF10924E111092C9
:103650004F1110925011109251111092521110925C
:10366000531110925411109255111092571110923B
:103670005611109244111092451110924611109259
:103680004711109248111092491110924A1110924C
:103690004B1110924D1110924C111092D9111092A1
:1036A000DB111092DA11CC5AD74F0FB6F894DEBF67
:1036B0000FBECDBFDF91CF911F910F91FF90EF9083
:1036C000DF90CF90BF90AF909F908F907F906F9042
:1036D0005F904F903F902F900895CF92DF92EF929E
:1036E000FF920F931F93CF93DF93EC016A017B014D
:1036F000E889F98982E080834115514E61057105A1
:10370000B1F060E079E08DE390E0A70196010E94BE
:10371000CF3E89019A0101501109210931093695DD
:10372000279517950795980101151041A8F0E8898C
:10373000F989108260E874E88EE190E0A7019601B3
:103740000E94CF3EDA01C9010197A109B109B695DE
:10375000A795979587959C01EC85FD853083EE852F
:10376000FF852083188EEC89FD8986E08083EA89B5
:10377000FB89808180618083EA89FB898081886000
:103780008083EA89FB89808180688083EA89FB895C
:1037900080818F7D8083DF91CF911F910F91FF906A
:1037A000EF90DF90CF900895E091A814F091A914C4
:1037B0000190F081E02D682F88EA94E1199410922D
:1037C0008512109284121092AE121092D0121092A2
:1037D000AC1281E08093AB121092861261E084E11A
:1037E0000E94C73461E085E10E94C734E9EBF0E054
:1037F00080818E7F808380818D7F808388E4809329
:10380000B80085E48093BC0008950E94F93E382FEB
:103810002091D0129091CF12213208F049C08091AE
:10382000AC128111FCCF42E04093AC123093AB124A
:103830003FEF3093AA121092A9122093A812AFEA78
:10384000B2E148E852E1FA013E2F341B321718F476
:103850003D913193F9CF1092871220918712990FE1
:10386000922B9093871290918612913061F410926E
:103870008612909187129093BB009091BC0093FDAB
:10388000F8CF95EC01C095EE9093BC009091AC12EE
:103890009230E1F39091AA129F3F79F08091AA12A1
:1038A000803241F08091AA12803331F084E005C06B
:1038B00081E003C082E001C083E01092AE1210925A
:1038C000D0121092AD1208952F923F924F925F92B4
:1038D0006F927F928F929F92AF92BF92CF92DF9220
:1038E000EF92FF920F931F93CF93DF9343305105D5
:1038F0007CF400E010EC29E734ECFC010083118338
:1039000022833383FB01008311832283338360C0CE
:103910001A01EB018C01BA01550F880B990B0E941B
:10392000B43B6B017C019B01AC01F80160817181AA
:10393000828193810E945E3D4B015C01F8016083AE
:10394000718382839383A7019601688179818A813B
:103950009B810E945E3D2B013C01A5019401C501A4
:10396000B4010E94133C9B01AC01C301B2010E944F
:10397000F93CA70196010E94133C6B017C01A10157
:1039800041505109BA01550F880B990B0E94B43B65
:103990009B01AC01C701B6010E945E3D6B017C0139
:1039A000688379838A839B8320E030E0A9010E94A9
:1039B000AE3B87FF05C0188219821A821B8208C09D
:1039C000C701B6010E94443E688379838A839B8342
:1039D000DF91CF911F910F91FF90EF90DF90CF90EB
:1039E000BF90AF909F908F907F906F905F904F901F
:1039F0003F902F900895BC0188EA94E10C943033F5
:103A00008F929F92AF92BF920F931F93CF93DF93AA
:103A1000CDB7DEB7A1970FB6F894DEBF0FBECDBF0E
:103A200019A2423008F44AE08E010F5D1F4F842E28
:103A3000912CA12CB12CA50194010E94CF3EE62F20
:103A4000B901CA0101501109EA3014F4E05D01C066
:103A5000E95CD801EC93232B242B252B61F7B801CB
:103A600088EA94E10E943033A1960FB6F894DEBF45
:103A70000FBECDBFDF91CF911F910F91BF90AF903F
:103A80009F908F9008954F925F926F927F928F9246
:103A90009F92AF92BF92CF92DF92EF92FF926B0113
:103AA0007C01B42E9B01AC010E94823E882319F058
:103AB00063EC7BE027C026013701E89477F82FEF0D
:103AC0003FEF4FE75FE7C301B2010E94823E8111E1
:103AD0000DC02FEF3FEF4FE75FE7C301B2010E9438
:103AE000AE3B18161CF467EC7BE00CC02FEF3FEFE9
:103AF0004FE75FE4C701B6010E94F73D181694F442
:103B00006BEC7BE088EA94E1FF90EF90DF90CF9040
:103B1000BF90AF909F908F907F906F905F904F90ED
:103B20000C9430332FEF3FEF4FE75FECC701B60146
:103B30000E94AE3B87FDE4CF20E030E0A901C70141
:103B4000B6010E94AE3B87FF08C08DE22DDE4C011E
:103B5000F7FAF094F7F8F09402C0812C912CA12C84
:103B600060E070E080E09FE3AB1441F020E030E0E3
:103B700040E251E40E945E3DA394F6CF9B01AC016C
:103B8000C701B6010E94FA3C2B013C010E94CB3DCB
:103B90006B017C010E94B23B9B01AC01C301B201ED
:103BA0000E94F93C2B013C014AE0C701B60128DF25
:103BB0007C01E80CF91CBB2021F08EE2F5DDE80E5B
:103BC000F91EDB2CDD2019F120E030E040E251E469
:103BD000C301B2010E94133C2B013C010E94CB3D6A
:103BE0004B01A12CB12C4AE0C501B40109DFE80E5C
:103BF000F91EC501B4010E94B23B9B01AC01C30197
:103C0000B2010E94F93C2B013C01DA94DBCFC701E1
:103C1000FF90EF90DF90CF90BF90AF909F908F90EC
:103C20007F906F905F904F9008952DCFCF92DF924D
:103C3000EF92FF92CF93DF936C01990FEE08FF088C
:103C4000F7FE10C08DE2B0DDEC0166277727CB01CF
:103C50006C197D098E099F094AE0D2DE7C01EC0EC9
:103C6000FD1E05C04AE0C701B601CADE7C0164E85A
:103C700077E088EA94E10E9430338E0D9F1DDF913A
:103C8000CF91FF90EF90DF90CF900895CF92DF9289
:103C9000EF92FF92CF93DF936C01990FEE08FF082C
:103CA000F7FE15C08DE280DDEC0166277727CB019A
:103CB0006C197D098E099F094AE0A2DE8C0F9D1FB9
:103CC000DF91CF91FF90EF90DF90CF9008954AE081
:103CD000C701B601DF91CF91FF90EF90DF90CF90B9
:103CE0008FCE2F923F924F925F926F927F928F92E0
:103CF0009F92AF92BF92CF92DF92EF92FF920F937B
:103D00001F93CF93DF93CDB7DEB7CC5AD1090FB64F
:103D1000F894DEBF0FBECDBF9B01AC0184E5E1E3AB
:103D2000F2E0DE01AB5ABF4F01900D928A95E1F7A8
:103D300084E5E5E8F2E0DE01119601900D928A95A6
:103D4000E1F760E070E084E393E40E94F93C6B01EA
:103D50007C0120E030E0A9010E94F73D87FD0AC008
:103D600020E030E040E252E4C701B6010E94AE3BE1
:103D700087FDCDC020E030E040E752E4C701B60146
:103D80000E94F73D18165CF520E030E044EB52E469
:103D9000C701B6010E94AE3B87FF21C0A701960173
:103DA000C701B6010E94133C2AE83AEF42E958EBFA
:103DB0000E94133C4B015C0121EE3FE94EEB5BE3BB
:103DC000C701B6010E94133C9B01AC01C501B401BF
:103DD0000E94FA3C2EE53BE14EE55FE38CC020E01B
:103DE00030E040E252E4C701B6010E94F73D87FD92
:103DF00093C020E030E040E752E4C701B6010E94E2
:103E0000AE3B18160CF488C005E510E00C0F1D1F22
:103E10000C5F1F4F22242394312CD8018D909D904C
:103E2000AD90BD908D01A7019601C501B4010E941E
:103E3000F73D87FD63C0C1010197880F991F880F67
:103E4000991FE5E5F0E0EC0FFD1FE80FF91F40803A
:103E5000518062807380E1E0F0E0EC0FFD1FE80F1D
:103E6000F91F80819181A281B381C755DF4F88837B
:103E70009983AA83BB83C95AD040A3019201C70189
:103E8000B6010E94F93C6B017C01220C331C220C10
:103E9000331CE1E0F0E0EC0FFD1FE20DF31DC75510
:103EA000DF4F288139814A815B81C95AD0406081C6
:103EB0007181828193810E94F93C9B01AC01C70111
:103EC000B6010E94133C6B017C01A3019201C50164
:103ED000B4010E94F93C9B01AC01C701B6010E94EC
:103EE0005E3D9B01AC01C755DF4F688179818A81B6
:103EF0009B81C95AD0400E94FA3C12C09FEF291AF8
:103F0000390AA5E12A16310409F087CF05C064EA11
:103F100070E78DE79FE304C060E070EC89E794EC04
:103F2000C455DF4F0FB6F894DEBF0FBECDBFDF9193
:103F3000CF911F910F91FF90EF90DF90CF90BF90A6
:103F4000AF909F908F907F906F905F904F903F9039
:103F50002F900895FC01808160ED680F6A3030F089
:103F60009FEB980F963030F569EC680F70E0762F74
:103F70006627918188EF890F823310F4905305C032
:103F80008FEB890F8630B0F4975380E1989F600DD6
:103F9000711D1124928180ED890F8A3030F08FEBF2
:103FA000890F863038F489EC890F680F711D80E025
:103FB00090E0089569E17CEF8FEF9FEF0895CF9334
:103FC000DF9361DDEC0164E877E088EA94E10E9428
:103FD00030338C0F9D1FDF91CF9108950F931F9366
:103FE000CF93DF93EC010E948935688779878A87B0
:103FF0009B87E881F9810680F781E02DCE01199534
:1040000097FF17C00E948935088519852A853B8549
:10401000DC01CB01801B910BA20BB30B0C811D812A
:104020002E813F8180179107A207B30710F38FEF0E
:104030009FEFDF91CF911F910F910895AF92BF92A3
:10404000CF92DF92EF92FF920F931F93CF93DF9364
:104050006C0159018A01C0E0D0E0E62E660FFF082E
:10406000CA15DB0561F0C601B9DF97FD08C08E15E2
:104070009F0529F0F80181938F012196F1CFCE01A0
:10408000DF91CF911F910F91FF90EF90DF90CF9034
:10409000BF90AF90089585ED8093BC008091BC00E7
:1040A00084FDFCCF1092AC12089540918415262F08
:1040B00030E0240F311D21323105DCF42091AC12A7
:1040C0002430C9F4FC0180E090E0861758F4309168
:1040D00084152191DC01AE59BA4EA30FB11D2C936A
:1040E0000196F3CF80918415680F6093841580E06A
:1040F000089581E0089582E008950895E091851281
:1041000080918412E81730F4F0E0E755FA4E808190
:1041100090E008958FEF9FEF089590918512809120
:104120008412981750F4E92FF0E0E755FA4E2081F9
:1041300030E09F5F9093851202C02FEF3FEFC901DF
:1041400008958091841290E020918512821B91093C
:104150000895CF92DF92EF92FF920F931F93CF9328
:10416000DF937C01262F972F8A018091AD1288233F
:1041700091F0C62FD72F6E01C40ED51ECC15DD05CC
:1041800069F06991D701ED91FC910190F081E02DEA
:10419000C7011995F3CF642F822F87DFC801DF9104
:1041A000CF911F910F91FF90EF90DF90CF900895E6
:1041B000CF93DF931F92CDB7DEB769832091AD1205
:1041C0002223D1F02091D012203240F021E030E0C3
:1041D000FC013383228380E090E014C08091AE1212
:1041E000E82FF0E0E155FD4E998190838F5F809339
:1041F000AE128093D01204C061E0CE01019655DF6B
:1042000081E090E00F90DF91CF91089561E08AE125
:104210000E94C73461E087E00E94C73460E088E014
:104220000E94C7348FEF9FEF0895DF92EF92FF92C5
:104230000F931F93CF93DF938C01862FF801638137
:104240007481813059F038F0823059F0833061F058
:10425000636871600BC06368716408C063687165EE
:1042600005C06368716602C063687167EB01D0685E
:10427000F8018081DD24D394D092AD128093CF12C7
:104280001092AE121092D01261E085E495E190DFB9
:104290006D2F85E495E18CDF6C2F85E495E188DF57
:1042A00081E0B5DAF801618170E080E090E00E9481
:1042B0005135F801C081D092AD12C093CF12109247
:1042C000AE121092D01260E085E495E171DF81E0DA
:1042D0009EDA8091AC128111FCCF81E08093AC1208
:1042E0008093AB129FEF9093AA121092A912809321
:1042F000A8128093871280918712CC0FC82BC0938D
:10430000871280918612813061F41092861280911A
:1043100087128093BB008091BC0083FDF8CF85ECB1
:1043200001C085EE8093BC008091AC128130E1F336
:104330008091A912823018F48091A91201C082E004
:10434000A8E8B2E129EA35E1F9019E2F921B9817FE
:1043500018F49D919193F9CF109285128093841255
:1043600085E495E1DADEC82F85E495E1D6DEFC2E02
:10437000E12C9701282BC901F801028002C0969513
:1043800087950A94E2F7DF91CF911F910F91FF90EB
:10439000EF90DF9008951F920F920FB60F921124A5
:1043A0000BB60F922F933F934F935F936F937F932F
:1043B0008F939F93AF93BF93EF93FF938091B90037
:1043C000887F803609F49CC068F5883209F45BC0A8
:1043D00090F4803109F454C038F4882309F4F6C00D
:1043E000883009F44DC0F5C0883109F44CC08032E2
:1043F00009F45DC0EEC0803409F468C048F480332D
:1044000009F455C0883309F0E4C08093AA12D8C0DB
:10441000803509F44FC0883509F45DC0883409F04F
:10442000D8C0D6C0883909F4C7C0A8F4883709F4C1
:1044300067C038F4883609F463C0803709F460C077
:10444000C8C0883809F4B8C0803909F45FC0803822
:1044500009F0BFC05BC0803B09F486C038F4803AE5
:1044600009F466C0883A09F47FC0B3C0803C09F4FF
:10447000A7C0883C09F4A4C0883B09F48AC0A9C03D
:104480008091871210C09091A9128091A81298175C
:1044900070F5E091A91281E08E0F8093A912F0E0EF
:1044A000E857FD4E80818093BB0085EC86C08093E9
:1044B000AA128EC0E091A91281E08E0F8093A912FA
:1044C0008091BB00F0E0E857FD4E80839091A912E7
:1044D0008091A8126EC0E091A91281E08E0F8093A6
:1044E000A9128091BB00F0E0E857FD4E80838091D7
:1044F000AB1281116DC081E08093861284EA61C0A5
:1045000083E08093AC121092A815CFCF8091A815AC
:10451000803208F051C0E091A81581E08E0F8093A1
:10452000A8158091BB00F0E0E857FA4E8083BDCF1C
:1045300085EC8093BC001092AC128091A81580325B
:1045400030F4E091A815F0E0E857FA4E108260913F
:10455000A81570E0E0918615F091871588E895E13F
:1045600019951092A81535C084E08093AC12109272
:10457000851510928415E0918215F0918315199597
:1045800080918415811105C081E08093841510927B
:104590006215E091851581E08E0F80938515F0E01E
:1045A000EE59FA4E80818093BB00909185158091E1
:1045B0008415981708F479CF85E88093BC0009C06A
:1045C00085EC8093BC001092AC1203C01092AA122A
:1045D00062DDFF91EF91BF91AF919F918F917F919C
:1045E0006F915F914F913F912F910F900BBE0F9064
:1045F0000FBE0F901F9018951F920F920FB60F923B
:1046000011240F900FBE0F901F90189561E088E164
:104610000E94C73461E08BE00E94C73460E08CE008
:104620000E94C7348FEF9FEF089560E089E00E94F9
:10463000C73460E08EE10C94C7344F925F926F9262
:104640007F928F929F92AF92BF92CF92DF92EF9222
:10465000FF920F931F93CF93DF93CDB7DEB72C97C5
:104660000FB6F894DEBF0FBECDBF4B015C012D83AA
:104670003E834F835887E986FA860B871C8720E0A4
:1046800030E040E85FE30E94AE3B87FD9AC020E047
:1046900030E040E850E4C501B4010E94F73D18162F
:1046A0000CF493C086E0C816D104F8F06FE17CE00A
:1046B00088EA94E10E94453388E393E9A5E2B4E3F4
:1046C00089839A83AB83BC838DE0482E81E6582E84
:1046D0008BE7682E89E3782E99EBC92E9CE6D92EBC
:1046E00096E8E92E9AE3F92E1FC08CE08C9DF0012C
:1046F0008D9DF00D11249F0127503D4FD901CD9084
:10470000DD90ED90FC90139714964D905D906D9018
:104710007C90179718968D919D910D90BC91A02D2E
:1047200089839A83AB83BC83A50194016D817E81CB
:104730008F8198850E94F93C9B01AC01C501B401B1
:104740000E945E3D9B01AC0169857A858B859C85C5
:104750000E94133C0E94003E4B015C019B01AC0196
:10476000C301B2010E94133C9B01AC01C701B60119
:104770000E94FA3C6B017C01A501940169817A8158
:104780008B819C810E94133CA50194010E94133CE3
:10479000A50194010E94133C9B01AC01C701B60125
:1047A0000E94FA3C9B01AC0160E070E080E89FE36E
:1047B0000E945E3D23E333E948E853E40E94F93C5C
:1047C00008C060E070E0CB0104C060E070E088E405
:1047D00093E42C960FB6F894DEBF0FBECDBFDF91E9
:1047E000CF911F910F91FF90EF90DF90CF90BF90EE
:1047F000AF909F908F907F906F905F904F900895B3
:104800000097A9F08130910519F00196D1F4FECC02
:1048100060E08AE10E94C73460E087E00E94C7340C
:1048200061E088E00E94C73421E030E00AC060E027
:1048300087E00E94C73460E088E00E94C73420E02F
:1048400030E0C90108958F929F92AF92BF92CF92AC
:10485000DF92EF92FF928091F611882309F49CC0B9
:1048600085E00E949F34019751F486E00E949F34B6
:10487000892B29F41092D8111092D7118DC00E9463
:1048800089356B017C01C2DC88EA94E10E94D43155
:10489000892B09F060C064E670E080E090E00E943F
:1048A00051359FD620E030E0A9010E94AE3B88231D
:1048B00041F00E9489356C197D0981E065367105EA
:1048C00008F480E0682F70E080E090E00E94B43B44
:1048D0004B015C018091781290917912BC01990F83
:1048E000880B990B0E94B43B9B01AC01C501B4013C
:1048F0000E94F73D87FD03C06DE37CE00DC00E9480
:1049000089356C197D0980917A1290917B128617F6
:10491000970750F468E57CE088EA94E10E9445330B
:1049200080E090E06DDF17C086E00E949F34892B05
:1049300009F0AACF63E77CE088EA94E10E9445335E
:1049400060917C1270917D12072E000C880B990BE0
:104950000E945135E5CF0E9489356C197D098E0979
:104960009F094AE04DD867E87CE088EA94E10E941C
:10497000453380E090E044DF1092D8111092D711B7
:1049800061E08AE1FF90EF90DF90CF90BF90AF9011
:104990009F908F900C94C734FF90EF90DF90CF9052
:1049A000BF90AF909F908F9008958F929F92AF92FB
:1049B000BF92CF92DF92EF92FF928091F6118823FF
:1049C00009F4A3C085E00E949F34892B59F486E046
:1049D0000E949F348130910529F49093D8118093DF
:1049E000D71193C00E9489356B017C0181E090E072
:1049F00007DF88EA94E10E94D431892B09F04BC08B
:104A000064E670E080E090E00E945135EAD50E94B3
:104A1000C63D9B0177FF04C022273327261B370B97
:104A2000B901330F880B990B0E94B43B4B015C0119
:104A30008091721290917312BC01990F880B990B9F
:104A40000E94B43B9B01AC01C501B4010E94F73D3B
:104A500087FD45C00E9489356C197D096536710551
:104A600008F43DC04BC085E00E949F34892B09F6B5
:104A700068EA7CE088EA94E10E944533609176120E
:104A800070917712072E000C880B990B0E945135FC
:104A900080E090E0B5DE0E9489356C197D098E09B1
:104AA0009F094AE00E94001D67E87CE088EA94E1E3
:104AB0000E94453380E090E0A3DE81E090E0909397
:104AC000D8118093D71160E08AE1FF90EF90DF90DA
:104AD000CF90BF90AF909F908F900C94C7340E945E
:104AE00089356C197D098091741290917512861721
:104AF000970708F0B8CF6EE87CE002C06AEB7CE074
:104B000088EA94E10E944533C3CFFF90EF90DF9095
:104B1000CF90BF90AF909F908F9008950097A9F08D
:104B20008130910519F00196F1F470CD61E088E1D2
:104B30000E94C73460E08BE00E94C73461E08CE0E3
:104B40000E94C73421E030E00EC060E088E10E949E
:104B5000C73460E08BE00E94C73460E08CE00E94C4
:104B6000C73420E030E0C90108954F925F926F9200
:104B70007F928F929F92AF92BF92CF92DF92EF92ED
:104B8000FF920F931F93CF93DF9300D01F92CDB767
:104B9000DEB75C018B0184E690E0A0E0B0E080939A
:104BA000721390937313A0937413B093751362E40C
:104BB0008EE693E10E9425326AE070E080E090E0AA
:104BC0000E94513524E030E0AE014F5F5F4F6AE054
:104BD0008EE693E133DA1C82CE010196BBD90E94A6
:104BE000B43B6B017C0120E030EC49E754EC0E94BF
:104BF000AE3B882309F489C020E030E0A901C70159
:104C0000B6010E94F73D87FD80C020E038E040E813
:104C100055E4C701B6010E94AE3B18160CF475C0EE
:104C200020E030E040E055E4C701B6010E94F93CC5
:104C30006B017C0120E030E84FEC54EC0E94AE3B6D
:104C400087FD12C020E030E84FEC54E4C701B60104
:104C50000E94F73D18167CF4C12C30E8D32E3FECAF
:104C6000E32E34E4F32E07C0C12C20E8D22E2FEC23
:104C7000E22E24ECF22E26E83AE543E55CE3C70198
:104C8000B6010E94133C2B013C0120E030E0A90159
:104C9000C701B6010E94133CA70196010E94133C74
:104CA0009B01AC01C301B2010E94FA3C2B013C0103
:104CB0002FE33DEE44EA5FEAC701B6010E94133CD0
:104CC000A70196010E94133CA70196010E94133C84
:104CD0009B01AC01C301B2010E94FA3C9B01AC01F3
:104CE00060E070E0CB010E94F93C209114123091F9
:104CF000151240911612509117120E94FA3CF501BC
:104D0000608371838283938309C080E090ECA9E77C
:104D1000B4ECF50180839183A283B38363E48EE6D0
:104D200093E10E9425326AE070E080E090E00E940A
:104D3000513524E030E0AE014F5F5F4F6AE08EE610
:104D400093E17CD91C82CE01019604D90E94B43B28
:104D50006B017C0120E030EC49E754EC0E94AE3B53
:104D6000882309F489C020E030E0A901C701B60119
:104D70000E94F73D87FD80C020E038E040E855E420
:104D8000C701B6010E94AE3B18160CF475C020E0B6
:104D900030E040E055E4C701B6010E94F93C6B01E8
:104DA0007C0120E030E84FEC54EC0E94AE3B87FDE4
:104DB00012C020E030E84FEC54E4C701B6010E9475
:104DC000F73D18167CF4C12C90E8D92E9FECE92E03
:104DD00094E4F92E07C0C12C80E8D82E8FECE82E81
:104DE00084ECF82E26E83AE543E55CE3C701B6011A
:104DF0000E94133C4B015C0120E030E0A901C70197
:104E0000B6010E94133CA70196010E94133C9B012E
:104E1000AC01C501B4010E94FA3C4B015C012FE3D7
:104E20003DEE44EA5FEAC701B6010E94133CA701C8
:104E300096010E94133CA70196010E94133C9B011E
:104E4000AC01C501B4010E94FA3C9B01AC0160E0D9
:104E500070E0CB010E94F93C209118123091191298
:104E600040911A1250911B120E94FA3CF801608383
:104E700071838283938309C080E090ECA9E7B4EC4E
:104E8000F80180839183A283B3830F900F900F90DA
:104E90000F90DF91CF911F910F91FF90EF90DF90D6
:104EA000CF90BF90AF909F908F907F906F905F90CA
:104EB0004F900895CF92DF92EF92FF920F931F933E
:104EC000CF93DF93CDB7DEB760970FB6F894DEBF10
:104ED0000FBECDBF6C017B0184E690E0A0E0B0E0A6
:104EE0008093D5129093D612A093D712B093D81274
:104EF00081ED92E10E94D431892B29F081ED92E17C
:104F00000E94B231F5CF64ED7CE081ED92E10E9428
:104F1000453327E030E08E010F5F1F4FA8016AE0A4
:104F200081ED92E18BD8F801E80FF11D1082C801E4
:104F30000E94C139F601608371838283938381ED7E
:104F400092E10E94D431892B29F081ED92E10E94F7
:104F5000B231F5CF6CE478E081ED92E10E94453307
:104F60002BE030E0A8016AE081ED92E167D8DE0134
:104F70001796F80185E0800F9D9191938E13FCCFD9
:104F80001E82C8010E94C139F70160837183828348
:104F9000938360960FB6F894DEBF0FBECDBFDF914E
:104FA000CF911F910F91FF90EF90DF90CF900895D8
:104FB0004F925F926F927F92AF92BF92CF92DF92A9
:104FC000EF92FF920F931F93CF93DF9300D01F9226
:104FD000CDB7DEB72B013C0102E09BE9A92E9FE093
:104FE000B92E61E087E10E94C73462E070E080E0A2
:104FF00090E00E9451358BE094E10E94D431892BDE
:1050000029F08BE094E10E94B231F5CF6FE18BE0A3
:1050100094E10E942532C5010197F1F760E087E134
:105020000E94C73464E170E080E090E00E94513556
:10503000CE0101967C0110E08BE094E10E94D43116
:10504000892BA9F18BE094E10E94B231F7018193A1
:105050007F011F5F133081F7698170E080E090E08D
:105060000E94B23B20E030E040E853E40E94133C51
:105070006B017C018A81682F70E080E090E00E94E3
:10508000B23B9B01AC01C701B6010E94FA3C20E093
:1050900030E040E252E40E945E3D6B017C0120E082
:1050A00030E0A9010E94F73D87FF07C002C012301F
:1050B00099F20130B1F001E094CF20E030E044EB10
:1050C00053E4C701B6010E94AE3B181694F320E0EA
:1050D00030EC49E754ECC701B6010E94AE3B8111A8
:1050E00008C0C12C80ECD82E89E7E82E84ECF82E7D
:1050F0002DC0A3019201C701B6010E94FA3C6B01C9
:105100007C0120E030E044EB53E40E94F73D87FD52
:105110000AC020E030E044EB53E4C701B6010E942E
:10512000F93C6B017C0120E030E0A901C701B60128
:105130000E94AE3B87FF0AC020E030E044EB53E41E
:10514000C701B6010E94FA3C6B017C01C701B601A0
:105150000F900F900F900F90DF91CF911F910F91B3
:10516000FF90EF90DF90CF90BF90AF907F906F90C7
:105170005F904F90089566E877E088EA94E10E9496
:10518000453388ED9CE00E94FB1C81EE9CE00E9470
:10519000FB1C8BEE9CE00E94FB1C87EF9CE00E94B6
:1051A000FB1C8CEF9CE00E94FB1C84E09DE00E94B5
:1051B000FB1C66E877E088EA94E10C9445332F9273
:1051C0003F924F925F926F927F928F929F92AF9297
:1051D000BF92CF92DF92EF92FF920F931F93CF93E4
:1051E000DF931F921F92CDB7DEB74B015C01609138
:1051F00008127091091280910A1290910B12D8DE58
:105200006B017C0120E030EC49E754EC0E94AE3B9E
:1052100081110BC065E17DE088EA94E10E9445338D
:1052200020E070EC89E794EC0CC1A7019601C50160
:10523000B40189D76B017C019F77209110123091C6
:10524000111240911212509113120E94F73D18163C
:10525000B4F0609108127091091280910A12909135
:105260000B12A6DE162F082F60E088E179839A835F
:105270000E94C734212F7981802F9A81E2C061E09A
:1052800088E10E94C7340E9489352B013C0120E04F
:1052900030E040EA50E4C701B6019F770E94F73D35
:1052A00018160CF03FC020E030E0A901C701B6019C
:1052B0000E94AE3B87FFC3C081E090E02FDC6AE034
:1052C00070E080E090E00E9451356091081270918A
:1052D000091280910A1290910B126ADE8B01382E0E
:1052E000292E9B01482F592FC501B4012CD76B01E2
:1052F0007C010E948935DC01CB0184199509A6093E
:10530000B70981319742A105B10508F4C0CF6FE319
:105310007DE088EA94E10E94453360E088E10E94E4
:10532000C73484C080E090E0F9DB6091081270918E
:10533000091280910A1290910B123ADEC701B60150
:105340009F772091101230911112409112125091BA
:1053500013120E94F73D87FD7CCF60910812709177
:10536000091280910A1290910B1222DE9B01AC016E
:10537000C501B401E8D66B017C0120E030E0A90151
:105380000E94AE3B87FF57C022242394312CC701D3
:10539000B6010E94C63D9B0177FF04C02227332738
:1053A000261B370B890183E0000F111F8A95E1F757
:1053B0000230110514F402E010E0C101AFDBB801C6
:1053C000110F880B990B0E94513580E090E0A6DB0D
:1053D00068E770E080E090E00E945135609108122B
:1053E0007091091280910A1290910B12E1DD8B01EC
:1053F000382E292E9B01482F592FC501B401A3D661
:105400006B017C010E948935DC01CB01841995096F
:10541000A609B70989389341A105B10508F48ECFD3
:105420006CE57DE088EA94E10E944533202F712FDE
:10543000832D922D06C022242A94322CA8CFE6D8A0
:105440003ECFC22ED72E7C01C701B6010F900F9020
:10545000DF91CF911F910F91FF90EF90DF90CF9050
:10546000BF90AF909F908F907F906F905F904F9084
:105470003F902F9008958F929F92AF92BF92CF92BC
:10548000DF92EF92FF926B017C01209156123091D6
:10549000571240915812509159120E94133CA70183
:1054A00096010E94133CA70196010E94133C4B01F8
:1054B0005C0120915A1230915B1240915C12509124
:1054C0005D12C701B6010E94133CA70196010E941C
:1054D000133C9B01AC01C501B4010E94FA3C4B0195
:1054E0005C0120915E1230915F12409160125091E8
:1054F0006112C701B6010E94133C9B01AC01C501BA
:10550000B4010E94FA3C20916212309163124091E2
:105510006412509165120E94FA3CFF90EF90DF9068
:10552000CF90BF90AF909F908F9008958F929F9251
:10553000AF92BF92CF92DF92EF92FF926B017C010C
:1055400020914612309147124091481250914912D1
:105550000E94133CA70196010E94133CA7019601EB
:105560000E94133C4B015C0120914A1230914B1276
:1055700040914C1250914D12C701B6010E94133C4C
:10558000A70196010E94133C9B01AC01C501B40127
:105590000E94FA3C4B015C0120914E1230914F1257
:1055A0004091501250915112C701B6010E94133C14
:1055B0009B01AC01C501B4010E94FA3C209152123A
:1055C0003091531240915412509155120E94FA3C5E
:1055D000FF90EF90DF90CF90BF90AF909F908F9013
:1055E0000895CF93DF9380E00E943235EC0181E093
:1055F0000E943235BE01681B790B072E000C880B08
:10560000990B0E94B43BDF91CF9108952F923F9266
:105610004F925F926F927F928F929F92AF92BF92C2
:10562000CF92DF92EF92FF920F931F93CF93DF936E
:10563000CDB7DEB7EA970FB6F894DEBF0FBECDBF89
:105640008C017CAB6BAB9E012F5F3F4F3AA729A724
:10565000612C712C412C512C212C312C39EA3FA783
:105660008FE588AB93E699ABE8EDEAABF9EAFBA7E7
:105670002FE52CA733E63DA788E58EA7812C912C3A
:105680005401F8013497FEABEDAB98012850310975
:1056900038AF2FAB38EF300F39AF8CEF800F8AAFB8
:1056A0000430110520F4602F8BE595E110C0EDA9C1
:1056B000FEA9349720F46AAD86E595E108C02FA9CC
:1056C00038AD2430310530F469AD81E595E10E94B3
:1056D000152102C080E090E0BC01990F880B990B66
:1056E0000E94B43B20E030E04AEF55E40E945E3D6A
:1056F0006B017C01E9A5FAA5619371938193919364
:10570000FAA7E9A79B01AC01C501B4010E94FA3CCC
:105710004B015C012BA53CA54DA55EA5C701B601BB
:105720000E94AE3B87FF05C03101CBA6DCA6EDA6EB
:10573000FEA62FA538A949A95AA9C701B6010E94FA
:10574000F73D18162CF42101CFA6D8AAE9AAFAAA87
:10575000FFEF2F1A3F0A2AE02216310409F0A0CFEA
:10576000F201EE0FFF1FEE0FFF1F81E090E08C0FA4
:105770009D1FE80FF91F2081318142815381C501AE
:10578000B4010E94F93CF301EE0FFF1FEE0FFF1F63
:1057900021E030E02C0F3D1FE20FF31F208131810B
:1057A000428153810E94F93C20E030E040E05EE31A
:1057B0000E94133CEBA9FCA96083718382839383CD
:1057C00081E090E0EA960FB6F894DEBF0FBECDBF41
:1057D000DF91CF911F910F91FF90EF90DF90CF90CD
:1057E000BF90AF909F908F907F906F905F904F9001
:1057F0003F902F9008953F924F925F926F927F92C9
:105800008F929F92AF92BF92CF92DF92EF92FF92D0
:105810000F931F93CF93DF93CDB7DEB764970FB687
:10582000F894DEBF0FBECDBF7C014A015B01D22ED2
:10583000C02E412C512C612C2FE3722E10E01D152F
:1058400061F020E030E040E251E4C301B2010E9487
:105850005E3D2B013C011F5FF2CF1982F7011082E0
:1058600020E030E0A901C501B4010E94AE3B87FFF2
:1058700009C065E373E0C7010E94083FB7FAB0941E
:10588000B7F8B094A3019201C501B4010E94FA3C9B
:105890002B013C010E94C63D698B7A8B8B8B9C8BC4
:1058A0002AE08E010F5F1F4FA8010E94E139BC0161
:1058B000C7010E94FD3EDD2009F474C068E373E077
:1058C000C7010E94FD3E33243A943D0C812C912C5B
:1058D00054018394DA94FFEFDF1649F0AAE0B0E0B8
:1058E000A50194010E94E03C4B015C01F3CF20E054
:1058F00030E0A901C301B2010E94F73D87FD0BC052
:1059000069897A898B899C890E94B43B9B01AC018F
:10591000C301B20108C069897A898B899C890E9478
:10592000B43BA30192010E94F93C2B013C01C5014B
:10593000B4010E94B23B9B01AC01C301B2010E94C1
:10594000133C0E94CB3D962EA72EB82ED92E262F83
:10595000372F482F592F8AE0482E512C612C712C5B
:10596000CA01B901A30192010E94CF3E2115310560
:105970004105510511F03A94F3CF332039F06BE330
:1059800073E0C7010E94FD3E3A94F7CF2AE0A801D8
:10599000692D7A2D8B2D9D2D0E94E139BC01C70107
:1059A0000E94FD3ECC2009F1F70101900020E9F7AB
:1059B0003197EE19FF098C2D90E08E179F07A8F004
:1059C000CE1AF80190E28E2F801B8C1510F4919363
:1059D000FACFF801EC0DF11D1082B701C8010E9449
:1059E000FD3EB801C7010E94083FC70164960FB68B
:1059F000F894DEBF0FBECDBFDF91CF911F910F9105
:105A0000FF90EF90DF90CF90BF90AF909F908F90DE
:105A10007F906F905F904F903F9008954F925F926C
:105A20006F927F928F929F92AF92BF92CF92DF92AE
:105A3000EF92FF920F931F93CF93DF93CDB7DEB713
:105A400027970FB6F894DEBF0FBECDBF8C01FC01C7
:105A500010820E948935C0908012D0908112E0900F
:105A60008212F09083129B01AC012C193D094E0962
:105A70005F0969017A01CA01B90120E03CE546E20B
:105A800055E00E94CF3E49015A011B828AE0482E10
:105A9000512C612C712CCA01B901A30192010E9401
:105AA000CF3E605D6A8380E3820F8983BE016F5FB2
:105AB0007F4FC8010E94FD3E66ED70E1C8010E9463
:105AC000FD3EA501940160E07CE586E295E00E9440
:105AD000C03EA7019601261B370B480B590B2C83A0
